S0100000506C616E744C45442E7372656340
S11300000C9434000C948B000C9451000C9451000B
S11300100C9451000C9451000C9451000C94510018
S11300200C9451000C9451000C9451000C94510008
S11300300C9451000C9451000C9451000C945100F8
S11300400C9451000C9451000C9451000C945100E8
S11300500C9451000C9451000C9451000C945100D8
S11300600C9451000C94510011241FBECFEFD8E022
S1130070DEBFCDBF11E0A0E0B1E0E6E1F5E002C0F3
S113008005900D92A031B107D9F721E0A0E1B1E0CC
S113009001C01D92A233B207E1F70E94D7000C946D
S11300A089020C9400001092110110921301109215
S11300B0120110922701109226011092150110923C
S11300C01401E6E1F1E086E291E01192E817F90704
S11300D0E1F708951092C50083E38093C40088E19A
S11300E08093C1008EE08093C20008950E946A004C
S11300F0E1ECF0E08081806880830895E0ECF0E03A
S1130100908195FFFDCF8093C60008950E947E00E4
S113011080E090E008951F920F920FB60F92112481
S11301208F939F938FE39FE10197F1F700C0000045
S11301304A990BC0809110018F5F809310018091C8
S11301401001843010F0109210019F918F910F9044
S11301500FBE0F901F90189584B18F6384B9E9E6A0
S1130160F0E080818E7F808380818260808381E063
S11301708DBB8CBB85B1807C85B91092100108952C
S11301800F931F93CF93DF93813061F4C6E0D1E0E6
S113019000E111E089910E947E00C017D107D1F7D8
S11301A0309BFECFDF91CF911F910F9108950E9454
S11301B0AC002FEF83EC99E0215080409040E1F7B0
S11301C000C000000E9476000E94530060E070E0CE
S11301D086E890E00E94FA007894809110018130C2
S11301E0E1F781E090E00E94C0008091100181302D
S11301F0E1F3F3CF0F931F93CF93DF93009731F481
S11302006115710519F480E090E03AC08B01EC01AE
S11302106EE070E081E090E00E944501FC01892BD2
S113022091F380E883830115110571F01387028728
S113023081E883838091280190912901892B21F4FD
S1130240F0932901E09328012097C9F0D187C08752
S113025083818260838380912A0190912B01892B71
S113026071F4F0932B01E0932A0180912C01909179
S11302702D01892B21F4F0932D01E0932C01CF0162
S1130280DF91CF911F910F9108950F931F93CF93F7
S1130290DF93869F8001879F100D969F100D112478
S11302A0C8010E946101EC01009729F0A80160E0F7
S11302B070E00E948202CE01DF91CF911F910F91D5
S11302C008950F931F93CF93DF938230910510F419
S11302D082E090E0E0913001F091310120E030E0E3
S11302E0A0E0B0E0309719F140815181028113817F
S11302F048175907C8F08417950769F4109731F027
S113030012960C93129713961C9327C000933001F6
S11303101093310122C02115310519F042175307FA
S113032018F49A01BD01EF01DF01F801DBCF2115BB
S11303303105F9F0281B390B2430310580F48A810A
S11303409B816115710521F0FB019383828304C0B5
S11303509093310180933001FE01329644C0FE0136
S1130360E20FF31F8193919322503109398328833B
S11303703AC020912E0130912F01232B41F420917A
S113038002013091030130932F0120932E0120911B
S11303900001309101012115310541F42DB73EB71B
S11303A04091040150910501241B350BE0912E016D
S11303B0F0912F01E217F307A0F42E1B3F0B28172F
S11303C0390778F0AC014E5F5F4F2417350748F0CA
S11303D04E0F5F1F50932F0140932E0181939193F1
S11303E002C0E0E0F0E0CF01DF91CF911F910F91C7
S11303F00895CF93DF93009709F481C0FC013297ED
S113040013821282A0913001B0913101109781F4CE
S113041020813181820F931F20912E0130912F0171
S11304202817390751F5F0932F01E0932E0167C087
S1130430ED0120E030E0CE17DF0740F44A815B8114
S11304409E0141155105F1F0EA01F5CFD383C28332
S113045040815181840F951FC817D90759F48881A9
S11304609981840F951F0296918380838A819B8151
S1130470938382832115310529F4F0933101E093AC
S113048030013DC0E901FB83EA8349915991C40FCE
S1130490D51FEC17FD0761F480819181840F951FAE
S11304A00296E90199838883828193819B838A835D
S11304B0E0E0F0E012968D919C911397009719F06B
S11304C0FD01DC01F7CF8D919C9111979D012E5F69
S11304D03F4F820F931F20912E0130912F01281737
S11304E0390769F4309729F41092310110923001E0
S11304F002C013821282B0932F01A0932E01DF91C8
S1130500CF910895DC0101C06D9341505040E0F754
S10905100895F894FFCFEA
S11305160000320120007EFF0612000001FEE8EF13
S9030000FC
